:100000000C9446000C9465000C9465000C946500FB
:100010000C9465000C9465000C9465000C946500CC
:100020000C9465000C9465000C9465000C946500BC
:100030000C9465000C9465000C9493000C9465007E
:100040000C9465000C9465000C9465000C9465009C
:100050000C9465000C9465000C9465000C9465008C
:100060000C9465000C9465000C9465000C9465007C
:100070000C9465000C9465000C9465000C9465006C
:100080000C9465000C9465000C94650011241FBE4F
:10009000CFEFD0E1DEBFCDBF11E0A0E0B1E0E6EBF5
:1000A000F4E000E00BBF02C007900D92A030B10752
:1000B000D9F711E0A0E0B1E001C01D92A430B10772
:1000C000E1F70E94EA010C9459020C94000088E0C8
:1000D000809399001092980089B91092900096E050
:1000E00090939D0088E180939A00909395008AB93F
:1000F0000895982F80919B0085FFFCCF90939C00E2
:1001000008951FBC8EB580618EBD2FB7F89482E331
:1001100090E097BD86BD2FBF8EB5887F8EBD8EB512
:1001200082608EBD08951F920F920FB60F92112418
:100130008F939F93AF93BF938091000190910101A2
:10014000A0910201B09103010196A11DB11D809300
:10015000000190930101A0930201B0930301BF91AC
:10016000AF919F918F910F900FBE0F901F90189598
:1001700089B380FFFDCF20E030E0C901880F991FCF
:10018000C89B03C09C01216001C09C01109200012A
:10019000109201011092020110920301809100015E
:1001A00090910101A0910201B0910301892BB1F35B
:1001B0008AEA2A3A380709F7089586B380FFFDCF07
:1001C00020E030E0C901880F991FB09B03C09C015B
:1001D000216001C09C011092000110920101109257
:1001E0000201109203018091000190910101A09100
:1001F0000201B0910301892BB1F38AEA2A3A380748
:1002000009F708950F931F93DF93CF93CDB7DEB710
:10021000A8970FB6F894DEBF0FBECDBFAE014F5FFB
:100220005F4FFA0121E030E08E010F5D1F4FC89B48
:1002300003C03183208302C011821082109200011A
:1002400010920101109202011092030180910001AD
:1002500090910101A0910201B0910301892BB1F3AA
:100260003296E017F10719F720E030E0FA018081BB
:10027000918162817381892BA1F484819581672B9F
:1002800041F4019711F5220F331F220F331F226013
:100290001CC00197D1F4220F331F220F331F21609E
:1002A00014C0FA01848195816130710539F4892B7C
:1002B00061F4220F331F220F331F07C0019729F467
:1002C000220F331F220F331F2360485F5F4F4017F9
:1002D000510761F6C901A8960FB6F894DEBF0FBEAC
:1002E000CDBFCF91DF911F910F9108950F931F9371
:1002F000DF93CF93CDB7DEB7A8970FB6F894DEBFE4
:100300000FBECDBFAE014F5F5F4FFA0121E030E07D
:100310008E010F5D1F4FB09B03C03183208302C04D
:1003200011821082109200011092010110920201BC
:10033000109203018091000190910101A0910201AE
:10034000B0910301892BB1F33296E017F10719F749
:1003500020E030E0FA018081918162817381892BF4
:10036000A1F484819581672B41F4019711F5220F47
:10037000331F220F331F22601CC00197D1F4220FBC
:10038000331F220F331F216014C0FA01848195812D
:100390006130710539F4892B61F4220F331F220F6C
:1003A000331F07C0019729F4220F331F220F331F79
:1003B0002360485F5F4F4017510761F6C901A89657
:1003C0000FB6F894DEBF0FBECDBFCF91DF911F9166
:1003D0000F910895CF92DF92EF92FF920F931F93A8
:1003E000DF93CF93CDB7DEB7A8970FB6F894DEBFF3
:1003F0000FBECDBF0E9467000E9481001ABA17BAD3
:100400008FEF8BBB88BB87B7846087BF8FB780684F
:100410008FBFCC24CA9420E8D22E7E010894E11C20
:10042000F11C8E010D5E1F4F0E94B8000E94020158
:100430009A8389830E9402019C838B830E9402011C
:100440009E838D830E94020198878F830E94020100
:100450009A8789870E9402019C878B870E940201EC
:100460009E878D870E940201988B8F870E940201D0
:100470009A8B898B80919B0085FFFCCFC0929C005A
:1004800080919B0085FFFCCFD0929C00F70190816A
:1004900080919B0085FFFCCF90939C003296E017E3
:1004A000F107A9F780919B0085FFFCCF10929C007B
:0604B000BBCFF894FFCF62
:00000001FF
