:100000000C9446000C9465000C9465000C946500FB
:100010000C9465000C9465000C9465000C946500CC
:100020000C9465000C9465000C9465000C946500BC
:100030000C9465000C9465000C948C000C94650085
:100040000C9465000C9465000C9465000C9465009C
:100050000C9465000C9465000C9465000C9465008C
:100060000C9465000C9465000C9465000C9465007C
:100070000C9465000C9465000C9465000C9465006C
:100080000C9465000C9465000C94650011241FBE4F
:10009000CFEFD0E1DEBFCDBF11E0A0E0B1E0E0EEF8
:1000A000F2E000E00BBF02C007900D92A030B10754
:1000B000D9F711E0A0E0B1E001C01D92A432B10770
:1000C000E1F70E9452010C946E010C94000088E04C
:1000D000809399001092980087E689B91092900059
:1000E00096E090939D0088E180939A00909395000C
:1000F0008AB908951FBC8EB580618EBD2FB7F89464
:1001000088E790E097BD86BD2FBF8EB5887F8EBDF6
:100110008EB582608EBD08951F920F920FB60F921A
:1001200011248F939F93AF93BF938091000190917F
:100130000101A0910201B09103010196A11DB11D21
:100140008093000190930101A0930201B0930301F9
:10015000BF91AF919F918F910F900FBE0F901F9005
:100160001895982F80919B0085FFFCCF90939C0061
:1001700008955D9BFECF8CB908955F9BFECF8CB137
:1001800090E00895582F90E820E030E0E7E073E039
:1001900061E0892F8523492F4695882359F5842FBF
:1001A0008523A1F415BA109200011092010110925A
:1001B0000201109203018091000190910101A09130
:1001C0000201B0910301892BB1F33EC065BB1092CF
:1001D000000110920101109202011092030180911E
:1001E000000190910101A0910201B0910301892BBE
:1001F000B1F32AC0842F8523A1F475BB10920001AE
:1002000010920101109202011092030180910001ED
:1002100090910101A0910201B0910301892BB1F3EA
:1002200013C0E5BB1092000110920101109202016F
:10023000109203018091000190910101A0910201AF
:10024000B0910301892BB1F32F5F3F4F243031056B
:1002500019F0942F96959DCF08955D9BFECF82E473
:100260008CB95D9BFECF8DE48CB95D9BFECF82EE99
:100270008CB95D9BFECF1CB85D9BFECF1CB85D9B0F
:10028000FECF1CB85D9BFECF1CB8E4E0F1E05F9BA5
:10029000FECF8CB1819381E0E432F807C1F7CF0142
:1002A000809708951F930E9467000E947A008FEF45
:1002B00081BB97B7946097BF9FB790689FBF8ABB79
:1002C00084BB8093610011E08EE20E94C20081E64F
:1002D0000E94C2008BB381278BBBF6CFF894FFCF6F
:00000001FF
