:100000000C9446000C9465000C9465000C946500FB
:100010000C9465000C9465000C9465000C946500CC
:100020000C9465000C9465000C9465000C946500BC
:100030000C9465000C9465000C948B000C94650086
:100040000C9465000C9465000C9465000C9465009C
:100050000C9465000C9465000C9465000C9465008C
:100060000C9465000C9465000C9465000C9465007C
:100070000C9465000C9465000C9465000C9465006C
:100080000C9465000C9465000C94650011241FBE4F
:10009000CFEFD0E1DEBFCDBF11E0A0E0B1E0EAEEEE
:1000A000FAE000E00BBF02C007900D92A030B1074C
:1000B000D9F711E0A0E0B1E001C01D92A430B10772
:1000C000E1F70E9455050C9473050C94000087E637
:1000D000809399001092980089B91092900096E050
:1000E00090939D0088E180939A00909395008AB93F
:1000F00008951FBC8EB580618EBD2FB7F89488E738
:1001000090E097BD86BD2FBF8EB5887F8EBD8EB522
:1001100082608EBD08951F920F920FB60F92112428
:100120008F939F93AF93BF938091000190910101B2
:10013000A0910201B09103010196A11DB11D809310
:10014000000190930101A0930201B0930301BF91BC
:10015000AF919F918F910F900FBE0F901F901895A8
:100160005D9BFECF8CB908955F9BFECF8CB190E074
:10017000089580919B0087FFFCCF80919C0090E0C8
:100180000895982F80919B0085FFFCCF90939C0051
:100190000895AC0120E030E014C0109200011092EC
:1001A00001011092020110920301809100019091CF
:1001B0000101A0910201B0910301892BB1F32F5FDE
:1001C0003F4F241735074CF308951F93F82FE0E8AD
:1001D00060E070E047E050E017E01CC020E030E055
:1001E000109200011092010110920201109203017D
:1001F0008091000190910101A0910201B091030151
:10020000892BB1F32F5F3F4F261737074CF3E69545
:10021000415050408E2F8F2311F415BB01C015BAE9
:100220006F5F7F4F10920001109201011092020146
:10023000109203018091000190910101A0910201AF
:10024000B0910301892BB1F315BB41155105D1F0D4
:1002500020E030E014C010920001109201011092D1
:100260000201109203018091000190910101A0917F
:100270000201B0910301892BB1F32F5F3F4F241787
:1002800035074CF36830710509F0A8CF81E090E0A4
:100290001F9108950895282F87FD02C015BA02C046
:1002A00087E085BB109200011092010110920201BB
:1002B000109203018091000190910101A09102012F
:1002C000B0910301892BB1F315BA1092000110927D
:1002D000010110920201109203018091000190919E
:1002E0000101A0910201B0910301892BB1F3109299
:1002F00000011092010110920201109203018091FD
:10030000000190910101A0910201B0910301892B9C
:10031000B1F31092000110920101109202011092AB
:1003200003018091000190910101A0910201B0911F
:100330000301892BB1F31092000110920101109278
:100340000201109203018091000190910101A0919E
:100350000201B0910301892BB1F326FD02C015BA49
:1003600002C087E085BB109200011092010110923B
:100370000201109203018091000190910101A0916E
:100380000201B0910301892BB1F315BA109200015B
:10039000109201011092020110920301809100015C
:1003A00090910101A0910201B0910301892BB1F359
:1003B00010920001109201011092020110920301AB
:1003C0008091000190910101A0910201B09103017F
:1003D000892BB1F3109200011092010110920201D9
:1003E000109203018091000190910101A0910201FE
:1003F000B0910301892BB1F3109200011092010119
:10040000109202011092030180910001909101016C
:10041000A0910201B0910301892BB1F325FD02C027
:1004200015BA02C087E085BB10920001109201014D
:10043000109202011092030180910001909101013C
:10044000A0910201B0910301892BB1F315BA10926A
:10045000000110920101109202011092030180919B
:10046000000190910101A0910201B0910301892B3B
:10047000B1F310920001109201011092020110924A
:1004800003018091000190910101A0910201B091BE
:100490000301892BB1F31092000110920101109217
:1004A0000201109203018091000190910101A0913D
:1004B0000201B0910301892BB1F310920001109257
:1004C00001011092020110920301809100019091AC
:1004D0000101A0910201B0910301892BB1F324FD28
:1004E00002C015BA02C087E085BB109200011092CD
:1004F000010110920201109203018091000190917C
:100500000101A0910201B0910301892BB1F315BA49
:10051000089587E085BB20E030E010920001109242
:10052000010110920201109203018091000190914B
:100530000101A0910201B0910301892BB1F32F5F5A
:100540003F4F2430310549F715BA20E030E01092D2
:10055000000110920101109202011092030180919A
:10056000000190910101A0910201B0910301892B3A
:10057000B1F32F5F3F4F2430310549F7089515BA85
:1005800020E030E01092000110920101109202016F
:10059000109203018091000190910101A09102014C
:1005A000B0910301892BB1F32F5F3F4F2430310508
:1005B00049F70895DF93CF93CDB7DEB764970FB6B1
:1005C000F894DEBF0FBECDBFA82FAE014F5F5F4FC7
:1005D000FA0190E861E070E09E012F5E3F4F892FA5
:1005E0008A2319F41182108202C0718360833296CB
:1005F000E217F30711F09695F2CF1A8A198A67E08D
:10060000FE017396DA018D919C91119712962D91AE
:100610003C911397892B09F008C114968D919C91F8
:100620001597232B09F070C0892B71F565BB1092CB
:1006300000011092010110920201109203018091B9
:10064000000190910101A0910201B0910301892B59
:10065000B1F315BA20E030E01092000110920101D0
:10066000109202011092030180910001909101010A
:10067000A0910201B0910301892BB1F32F5F3F4F8D
:100680002730310549F7DBC11092000110920101BA
:1006900010920201109203018091000190910101DA
:1006A000A0910201B0910301892BB1F365BB1092B7
:1006B0000001109201011092020110920301809139
:1006C000000190910101A0910201B0910301892BD9
:1006D000B1F315BA20E030E0109200011092010150
:1006E000109202011092030180910001909101018A
:1006F000A0910201B0910301892BB1F32F5F3F4F0D
:100700002630310549F79BC1892B09F047C020E00D
:1007100030E010920001109201011092020110923B
:1007200003018091000190910101A0910201B0911B
:100730000301892BB1F32F5F3F4F2230310549F779
:1007400065BB1092000110920101109202011092FB
:1007500003018091000190910101A0910201B091EB
:100760000301892BB1F315BA20E030E010920001AB
:100770001092010110920201109203018091000178
:1007800090910101A0910201B0910301892BB1F375
:100790002F5F3F4F2530310549F751C120E030E050
:1007A00010920001109201011092020110920301B7
:1007B0008091000190910101A0910201B09103018B
:1007C000892BB1F32F5F3F4F2330310549F765BBCC
:1007D0001092000110920101109202011092030187
:1007E0008091000190910101A0910201B09103015B
:1007F000892BB1F315BA20E030E01092000110927D
:100800000101109202011092030180910001909168
:100810000101A0910201B0910301892BB1F32F5F77
:100820003F4F2430310549F70AC1DA0114968D9102
:100830009C911597232B09F092C0892B09F047C092
:1008400020E030E0109200011092010110920201AC
:10085000109203018091000190910101A091020189
:10086000B0910301892BB1F32F5F3F4F2430310545
:1008700049F765BB1092000110920101109202012C
:10088000109203018091000190910101A091020159
:10089000B0910301892BB1F315BA20E030E010923A
:1008A0000001109201011092020110920301809147
:1008B000000190910101A0910201B0910301892BE7
:1008C000B1F32F5F3F4F2330310549F7B8C020E027
:1008D00030E010920001109201011092020110927A
:1008E00003018091000190910101A0910201B0915A
:1008F0000301892BB1F32F5F3F4F2530310549F7B5
:1009000065BB109200011092010110920201109239
:1009100003018091000190910101A0910201B09129
:100920000301892BB1F315BA20E030E010920001E9
:1009300010920101109202011092030180910001B6
:1009400090910101A0910201B0910301892BB1F3B3
:100950002F5F3F4F2230310509F471C0E7CF892B5B
:1009600009F040C020E030E0109200011092010137
:1009700010920201109203018091000190910101F7
:10098000A0910201B0910301892BB1F32F5F3F4F7A
:100990002630310549F765BB109200011092010124
:1009A00010920201109203018091000190910101C7
:1009B000A0910201B0910301892BB1F315BA1092F5
:1009C0000001109201011092020110920301809126
:1009D000000190910101A0910201B0910301892BC6
:1009E000B1F32DC020E030E010920001109201011F
:1009F0001092020110920301809100019091010177
:100A0000A0910201B0910301892BB1F32F5F3F4FF9
:100A10002730310549F765BB1092000110920101A2
:100A20001092020110920301809100019091010146
:100A3000A0910201B0910301892BB1F315BA4A5F6D
:100A40005F4F4E175F0709F0DDCD64960FB6F8943F
:100A5000DEBF0FBECDBFCF91DF910895582F40E884
:100A600020E030E067E0842F852311F412BA01C042
:100A700062BB2F5F3F4F1092000110920101109254
:100A80000201109203018091000190910101A09157
:100A90000201B0910301892BB1F32830310511F027
:100AA0004695E1CF81E090E008951F930E94670092
:100AB0000E9479008FEF8ABB81BB84BB87B78460BB
:100AC00087BF8FB780688FBF11E00E94890289E2DB
:100AD0000E94DA0285E40E94DA020E94BF028BB310
:0A0AE00081278BBBF2CFF894FFCF03
:00000001FF
