:100000000C9446000C9465000C9465000C946500FB
:100010000C9465000C9465000C9465000C946500CC
:100020000C9465000C9465000C9465000C946500BC
:100030000C9465000C9465000C9493000C9465007E
:100040000C9465000C9465000C9465000C9465009C
:100050000C9465000C9465000C9465000C9465008C
:100060000C9465000C9465000C9465000C9465007C
:100070000C9465000C9465000C9465000C9465006C
:100080000C9465000C9465000C94650011241FBE4F
:10009000CFEFD0E1DEBFCDBF11E0A0E0B1E0EAEFED
:1000A000F3E000E00BBF02C007900D92A030B10753
:1000B000D9F711E0A0E0B1E001C01D92A430B10772
:1000C000E1F70E94B8010C94FB010C94000088E059
:1000D000809399001092980089B91092900096E050
:1000E00090939D0088E180939A00909395008AB93F
:1000F0000895982F80919B0085FFFCCF90939C00E2
:1001000008951FBC8EB580618EBD2FB7F89482E331
:1001100090E097BD86BD2FBF8EB5887F8EBD8EB512
:1001200082608EBD08951F920F920FB60F92112418
:100130008F939F93AF93BF938091000190910101A2
:10014000A0910201B09103010196A11DB11D809300
:10015000000190930101A0930201B0930301BF91AC
:10016000AF919F918F910F900FBE0F901F90189598
:1001700089B380FFFDCF40E050E010920001109263
:1001800001011092020110920301809100019091EF
:100190000101A0910201B0910301892BB1F3CA01C1
:1001A000880F991FC89B05C0AC01416020E030E07A
:1001B00002C0AC01FBCF109200011092010110921D
:1001C0000201109203018091000190910101A09120
:1001D0000201B0910301892BB1F32F5F3F4F28300B
:1001E000310549F78FEF4038580739F680E89FEF1F
:1001F000089586B380FFFDCF40E050E010920001EB
:1002000010920101109202011092030180910001ED
:1002100090910101A0910201B0910301892BB1F3EA
:10022000CA01880F991FB09B05C0AC01416020E056
:1002300030E002C0AC01FBCF10920001109201012E
:10024000109202011092030180910001909101012E
:10025000A0910201B0910301892BB1F32F5F3F4FB1
:100260002830310549F78FEF4038580739F680E8D4
:100270009FEF089540E050E060E070E010920001D0
:10028000109201011092020110920301809100016D
:1002900090910101A0910201B0910301892BB1F36A
:1002A000CA01880F991FC89B03C0AC01416001C0FF
:1002B000AC0120E030E01092000110920101109298
:1002C0000201109203018091000190910101A0911F
:1002D0000201B0910301892BB1F32F5F3F4F28300A
:1002E000310549F76F5F7F4F6830710539F6CA01F4
:1002F000089560E070E040E050E01092000110923C
:10030000010110920201109203018091000190916D
:100310000101A0910201B0910301892BB1F3CA013F
:10032000880F991FB09B03C0AC01416001C0AC01B4
:1003300020E030E0109200011092010110920201C1
:10034000109203018091000190910101A09102019E
:10035000B0910301892BB1F32F5F3F4F2830310556
:1003600049F76F5F7F4F6830710539F6CA0108950C
:10037000EF92FF920F931F93DF93CF93CDB7DEB72A
:1003800064970FB6F894DEBF0FBECDBF0E94670022
:100390000E9481001ABA17BA8FEF88BB8BBB87B750
:1003A000846087BF8FB780688FBF7E010894E11C8F
:1003B000F11C8E01075F1F4F0E94B8000E943A0196
:1003C0009A8389830E943A019C838B830E943A011D
:1003D0009E838D830E943A0198878F83F7019081D5
:1003E00080919B0085FFFCCF90939C003296E01794
:0A03F000F107A9F7E1CFF894FFCF61
:00000001FF
