:100000000C9446000C9465000C9465000C946500FB
:100010000C9465000C9465000C9465000C946500CC
:100020000C9465000C9465000C9465000C946500BC
:100030000C9465000C9465000C948B000C94650086
:100040000C9465000C9465000C9465000C9465009C
:100050000C9465000C9465000C9465000C9465008C
:100060000C9465000C9465000C9465000C9465007C
:100070000C9465000C9465000C9465000C9465006C
:100080000C9465000C9465000C94650011241FBE4F
:10009000CFEFD0E1DEBFCDBF11E0A0E0B1E0EAEDEF
:1000A000F7E000E00BBF02C007900D92A030B1074F
:1000B000D9F711E0A0E0B1E001C01D92A430B10772
:1000C000E1F70E94B7030C94EB030C94000087E661
:1000D000809399001092980089B91092900096E050
:1000E00090939D0088E180939A00909395008AB93F
:1000F00008951FBC8EB580618EBD2FB7F89482E342
:1001000090E097BD86BD2FBF8EB5887F8EBD8EB522
:1001100082608EBD08951F920F920FB60F92112428
:100120008F939F93AF93BF938091000190910101B2
:10013000A0910201B09103010196A11DB11D809310
:10014000000190930101A0930201B0930301BF91BC
:10015000AF919F918F910F900FBE0F901F901895A8
:100160005D9BFECF8CB908955F9BFECF8CB190E074
:10017000089580919B0087FFFCCF80919C0090E0C8
:100180000895982F80919B0085FFFCCF90939C0051
:100190000895582F90E820E030E067E0892F85230C
:1001A000492F4695882309F09BC0842F852309F0A9
:1001B0004BC062BB1092000110920101109202012B
:1001C000109203018091000190910101A091020120
:1001D000B0910301892BB1F310920001109201013B
:1001E000109202011092030180910001909101018F
:1001F000A0910201B0910301892BB1F312BA1092C0
:1002000000011092010110920201109203018091ED
:10021000000190910101A0910201B0910301892B8D
:10022000B1F310920001109201011092020110929C
:1002300003018091000190910101A0910201B09110
:100240000301892BB1F3E8C012BA10920001109299
:10025000010110920201109203018091000190911E
:100260000101A0910201B0910301892BB1F362BB9E
:1002700010920001109201011092020110920301EC
:100280008091000190910101A0910201B0910301C0
:10029000892BB1F31092000110920101109202011A
:1002A000109203018091000190910101A09102013F
:1002B000B0910301892BB1F312BA10920001109290
:1002C00001011092020110920301809100019091AE
:1002D0000101A0910201B0910301892BB1F39CC0EF
:1002E000842F852309F04CC012BA1092000110929D
:1002F000010110920201109203018091000190917E
:100300000101A0910201B0910301892BB1F3109278
:1003100000011092010110920201109203018091DC
:10032000000190910101A0910201B0910301892B7C
:10033000B1F362BB10920001109201011092020110
:10034000109203018091000190910101A09102019E
:10035000B0910301892BB1F31092000110920101B9
:10036000109202011092030180910001909101010D
:10037000A0910201B0910301892BB1F312BA4CC0D4
:1003800062BB1092000110920101109202011092C2
:1003900003018091000190910101A0910201B091AF
:1003A0000301892BB1F312BA1092000110920101DE
:1003B00010920201109203018091000190910101BD
:1003C000A0910201B0910301892BB1F362BB10929D
:1003D000000110920101109202011092030180911C
:1003E000000190910101A0910201B0910301892BBC
:1003F000B1F312BA109200011092010110920201A1
:10040000109203018091000190910101A0910201DD
:10041000B0910301892BB1F32E5F3F4F2830310596
:1004200019F0942F9695BACE81E090E00895582F58
:1004300090E820E030E067E0892F8523492F46953A
:10044000882309F09BC0842F852309F04BC068BB2B
:10045000109200011092010110920201109203010A
:100460008091000190910101A0910201B0910301DE
:10047000892BB1F310920001109201011092020138
:10048000109203018091000190910101A09102015D
:10049000B0910301892BB1F318BA109200011092A8
:1004A00001011092020110920301809100019091CC
:1004B0000101A0910201B0910301892BB1F31092C7
:1004C000000110920101109202011092030180912B
:1004D000000190910101A0910201B0910301892BCB
:1004E000B1F3E8C018BA1092000110920101109205
:1004F0000201109203018091000190910101A091ED
:100500000201B0910301892BB1F368BB1092000185
:1005100010920101109202011092030180910001DA
:1005200090910101A0910201B0910301892BB1F3D7
:100530001092000110920101109202011092030129
:100540008091000190910101A0910201B0910301FD
:10055000892BB1F318BA1092000110920101109288
:100560000201109203018091000190910101A0917C
:100570000201B0910301892BB1F39CC0842F852324
:1005800009F04CC018BA10920001109201011092AB
:100590000201109203018091000190910101A0914C
:1005A0000201B0910301892BB1F310920001109266
:1005B00001011092020110920301809100019091BB
:1005C0000101A0910201B0910301892BB1F368BB35
:1005D0001092000110920101109202011092030189
:1005E0008091000190910101A0910201B09103015D
:1005F000892BB1F3109200011092010110920201B7
:10060000109203018091000190910101A0910201DB
:10061000B0910301892BB1F318BA4CC068BB10929A
:1006200000011092010110920201109203018091C9
:10063000000190910101A0910201B0910301892B69
:10064000B1F318BA10920001109201011092020148
:10065000109203018091000190910101A09102018B
:10066000B0910301892BB1F368BB10920001109285
:1006700001011092020110920301809100019091FA
:100680000101A0910201B0910301892BB1F318BAC5
:1006900010920001109201011092020110920301C8
:1006A0008091000190910101A0910201B09103019C
:1006B000892BB1F32E5F3F4F2830310519F0942F6D
:1006C0009695BACE81E090E0089587E082BB1092C3
:1006D0000001109201011092020110920301809119
:1006E000000190910101A0910201B0910301892BB9
:1006F000B1F312BA089512BA20E030E0109200016E
:1007000010920101109202011092030180910001E8
:1007100090910101A0910201B0910301892BB1F3E5
:100720002F5F3F4F2031310549F712BA80E090E04A
:10073000089512BA20E030E01092000110920101F9
:100740001092020110920301809100019091010129
:10075000A0910201B0910301892BB1F32F5F3F4FAC
:100760002031310549F712BA80E090E008950E94E7
:1007700067000E9479008FEF8ABB81BB87BB87B778
:10078000846087BF8FB780688FBF81E08BBB8FEF9E
:100790000E94C90081E00E94C90082E00E94C90055
:1007A00083E00E94C90084E00E94C90085E00E94A5
:1007B000C90086E00E94C90087E00E94C90088E065
:1007C0000E94C90089E00E94C9000E947B038BB38C
:0A07D00091E08927DBCFF894FFCFFA
:00000001FF
