:100000000C9446000C9465000C9465000C946500FB
:100010000C9465000C9465000C9465000C946500CC
:100020000C9465000C9465000C9465000C946500BC
:100030000C9465000C9465000C948B000C94650086
:100040000C9465000C9465000C9465000C9465009C
:100050000C9465000C9465000C9465000C9465008C
:100060000C9465000C9465000C9465000C9465007C
:100070000C9465000C9465000C9465000C9465006C
:100080000C9465000C9465000C94650011241FBE4F
:10009000CFEFD0E1DEBFCDBF11E0A0E0B1E0EEEEEA
:1000A000F2E000E00BBF02C007900D92A030B10754
:1000B000D9F711E0A0E0B1E001C01D92A430B10772
:1000C000E1F70E944A010C9475010C94000087E648
:1000D000809399001092980089B91092900096E050
:1000E00090939D0088E180939A00909395008AB93F
:1000F00008951FBC8EB580618EBD2FB7F89482E342
:1001000090E097BD86BD2FBF8EB5887F8EBD8EB522
:1001100082608EBD08951F920F920FB60F92112428
:100120008F939F93AF93BF938091000190910101B2
:10013000A0910201B09103010196A11DB11D809310
:10014000000190930101A0930201B0930301BF91BC
:10015000AF919F918F910F900FBE0F901F901895A8
:100160005D9BFECF8CB908955F9BFECF8CB190E074
:10017000089580919B0087FFFCCF80919C0090E0C8
:100180000895982F80919B0085FFFCCF90939C0051
:100190000895782F60E840E050E0E7E0862F87235D
:1001A00011F415BA01C0E5BB1092000110920101D3
:1001B00010920201109203018091000190910101BF
:1001C000A0910201B0910301892BB1F315BA20E08F
:1001D00030E0109200011092010110920201109281
:1001E00003018091000190910101A0910201B09161
:1001F0000301892BB1F32F5F3F4F2830310549F7B9
:100200004F5F5F4F4830510511F06695C7CF089595
:10021000782F60E840E050E0E7E0862F872319F46C
:100220001092620002C0E0936200109200011092EE
:10023000010110920201109203018091000190913E
:100240000101A0910201B0910301892BB1F3109239
:10025000620020E030E01092000110920101109243
:100260000201109203018091000190910101A0917F
:100270000201B0910301892BB1F32F5F3F4F28306A
:10028000310549F74F5F5F4F4830510511F06695D2
:10029000C4CF08951F930E9467000E9479008FEFDA
:1002A0008ABB81BB8093610084BB87B7846087BFB2
:1002B0008FB780688FBF11E08FEF0E94C90080E880
:1002C0000E94C9008AEA0E94C90080E20E94C90017
:1002D00089E20E94C90082EE0E94C90080E00E946B
:0E02E000C9008BB381278BBBE7CFF894FFCF0B
:00000001FF
