:100000000C9446000C9465000C9465000C946500FB
:100010000C9465000C9465000C9465000C946500CC
:100020000C9465000C9465000C9465000C946500BC
:100030000C9465000C9465000C9493000C9465007E
:100040000C9465000C9465000C9465000C9465009C
:100050000C9465000C9465000C9465000C9465008C
:100060000C9465000C9465000C9465000C9465007C
:100070000C9465000C9465000C9465000C9465006C
:100080000C9465000C9465000C94650011241FBE4F
:10009000CFEFD0E1DEBFCDBF11E0A0E0B1E0E4ECF6
:1000A000F6E000E00BBF02C007900D92A030B10750
:1000B000D9F711E0A0E0B1E001C01D92A430B10772
:1000C000E1F70E940F030C9460030C94000088E099
:1000D000809399001092980089B91092900096E050
:1000E00090939D0088E180939A00909395008AB93F
:1000F0000895982F80919B0085FFFCCF90939C00E2
:1001000008951FBC8EB580618EBD2FB7F89482E331
:1001100090E097BD86BD2FBF8EB5887F8EBD8EB512
:1001200082608EBD08951F920F920FB60F92112418
:100130008F939F93AF93BF938091000190910101A2
:10014000A0910201B09103010196A11DB11D809300
:10015000000190930101A0930201B0930301BF91AC
:10016000AF919F918F910F900FBE0F901F90189598
:1001700089B380FFFDCF20E030E0C901880F991FCF
:10018000C89B03C09C01216001C09C018CE82F3EEC
:10019000380799F0109200011092010110920201AB
:1001A000109203018091000190910101A091020140
:1001B000B0910301892B09F7F5CF089586B301C0EB
:1001C00089B380FFFDCF20E030E0C901880F991F7F
:1001D000B09B03C09C01216001C09C018CE82F3EB4
:1001E000380799F01092000110920101109202015B
:1001F000109203018091000190910101A0910201F0
:10020000B0910301892B09F7F5CF0895019711F5F6
:100210006115710529F4452BE9F4232BD9F41BC092
:1002200061307105B9F44115510529F4232B91F47E
:1002300021E030E012C04130510561F42115310553
:1002400019F422E030E009C02130310519F423E02F
:1002500030E003C0089520E030E0C9010895CF9256
:10026000DF92EF92FF920F931F93DF93CF93CDB75F
:10027000DEB7A8970FB6F894DEBF0FBECDBFFE0164
:10028000319641E050E09E012F5D3F4F10920001FA
:10029000109201011092020110920301809100015D
:1002A00090910101A0910201B0910301892BB1F35A
:1002B000C89B03C05183408302C0118210823296D2
:1002C000E217F30719F76B817C814D815E812F81E5
:1002D000388589819A810E9406018C016B857C8515
:1002E0004D855E852F85388989859A850E9406010E
:1002F0007C016B897C894D895E892F89388D89893C
:100300009A890E9406016C016B8D7C8D4D8D5E8DEE
:100310002F8D38A1898D9A8D0E9406010115110536
:1003200091F00130110519F421E030E00EC00230E7
:10033000110519F422E030E008C00330110519F46A
:1003400023E030E002C020E030E0E114F10429F4C1
:10035000220F331F220F331F1DC041E0E416F104AA
:1003600031F4220F331F220F331F216013C042E0EC
:10037000E416F10431F4220F331F220F331F2260E1
:1003800009C043E0E416F10429F4220F331F220FC1
:10039000331F2360C114D10429F4220F331F220F0D
:1003A000331F1DC041E0C416D10431F4220F331FA6
:1003B000220F331F216013C042E0C416D10431F470
:1003C000220F331F220F331F226009C043E0C416DF
:1003D000D10429F4220F331F220F331F236000970B
:1003E00029F4220F331F220F331F19C081309105CA
:1003F00031F4220F331F220F331F216010C08230CF
:10040000910531F4220F331F220F331F226007C0E2
:10041000039729F4220F331F220F331F2360C901D2
:10042000A8960FB6F894DEBF0FBECDBFCF91DF9177
:100430001F910F91FF90EF90DF90CF900895CF9292
:10044000DF92EF92FF920F931F93DF93CF93CDB77D
:10045000DEB7A8970FB6F894DEBF0FBECDBFFE0182
:10046000319641E050E09E012F5D3F4F1092000118
:10047000109201011092020110920301809100017B
:1004800090910101A0910201B0910301892BB1F378
:10049000B09B03C05183408302C011821082329608
:1004A000E217F30719F76B817C814D815E812F8103
:1004B000388589819A810E9406018C016B857C8533
:1004C0004D855E852F85388989859A850E9406012C
:1004D0007C016B897C894D895E892F89388D89895A
:1004E0009A890E9406016C016B8D7C8D4D8D5E8D0D
:1004F0002F8D38A1898D9A8D0E9406010115110555
:1005000091F00130110519F421E030E00EC0023005
:10051000110519F422E030E008C00330110519F488
:1005200023E030E002C020E030E0E114F10429F4DF
:10053000220F331F220F331F1DC041E0E416F104C8
:1005400031F4220F331F220F331F216013C042E00A
:10055000E416F10431F4220F331F220F331F2260FF
:1005600009C043E0E416F10429F4220F331F220FDF
:10057000331F2360C114D10429F4220F331F220F2B
:10058000331F1DC041E0C416D10431F4220F331FC4
:10059000220F331F216013C042E0C416D10431F48E
:1005A000220F331F220F331F226009C043E0C416FD
:1005B000D10429F4220F331F220F331F2360009729
:1005C00029F4220F331F220F331F19C081309105E8
:1005D00031F4220F331F220F331F216010C08230ED
:1005E000910531F4220F331F220F331F226007C001
:1005F000039729F4220F331F220F331F2360C901F1
:10060000A8960FB6F894DEBF0FBECDBFCF91DF9195
:100610001F910F91FF90EF90DF90CF900895DF92A0
:10062000EF92FF920F931F930E9467000E94810038
:100630001ABA17BA8FEF88BB8BBB87B7846087BFA6
:100640008FB780688FBFDD24DA94E0E8EE2E0E9439
:10065000B8000E942F01182F0E942F01082F0E941E
:100660002F01F82E0E942F01982F80919B0085FF6B
:10067000FCCFD0929C0080919B0085FFFCCFE09244
:100680009C0080919B0085FFFCCF10939C00809183
:100690009B0085FFFCCF00939C0080919B0085FF11
:1006A000FCCFF0929C0080919B0085FFFCCF909343
:1006B0009C0080919B0085FFFCCF10929C00C7CFCF
:0406C000F894FFCFDC
:00000001FF
